:100000000C9434000C9451000C9451000C94510049
:100010000C9451000C9451000C9451000C9451001C
:100020000C9451000C9451000C9451000C9451000C
:100030000C9451000C9451000C9451000C945100FC
:100040000C9451000C9451000C9451000C945100EC
:100050000C9451000C9451000C9451000C945100DC
:100060000C9451000C94510011241FBECFEFD8E026
:10007000DEBFCDBF11E0A0E0B1E0E6E8F3E002C0F2
:1000800005900D92AA32B107D9F721E0AAE2B1E0BA
:1000900001C01D92AF33B207E1F70E9445010C94F5
:1000A000C1010C94000084B1886084B90895109255
:1000B00080001092810085B1877F85B908950097EF
:1000C00019F1A0E0B0E09C01AD01220F331F441FE5
:1000D000551F60E074E284EF90E00E949601309337
:1000E00089002093880081E48093800081E18093DF
:1000F00081002FEF81EE94E0215080409040E1F7A5
:1001000000C000000E94570008950F931F93CF93E3
:10011000DF93CDB7DEB728970FB6F894DEBF0FBEDA
:10012000CDBF88E0E0E0F1E0DE01119601900D9294
:100130008A95E1F700E010E018C0F801EE0FFF1F0C
:1001400081E090E08C0F9D1FE80FF91F8081918165
:100150000E945F009FEF21EE84E09150204080409C
:10016000E1F700C000000F5F1F4F043011052CF3B2
:1001700028960FB6F894DEBF0FBECDBFDF91CF91AA
:100180001F910F9108958EEA8093BA0084E48093C2
:10019000BC0008958091BC008823E4F78091B900E9
:1001A000887F94EC9093BC00803811F0803979F40A
:1001B000E0912A01E33170F781E08E0F80932A01EC
:1001C000F0E08091BB00E55DFE4F8083E3CF88388F
:1001D00011F0883979F4E0912A01E331D8F681E011
:1001E0008E0F80932A01F0E08091BB00E55DFE4F09
:1001F0008083D0CF803A71F6E0912A01F0E0E55D8E
:10020000FE4F108210922A0108958BE291E008952A
:10021000882321F085B1816085B9089585B18E7FED
:1002200085B90895882321F085B1826085B9089544
:1002300085B18D7F85B9089584B1836084B980E0EC
:100240000E94080181E00E941201089520E01AC076
:1002500095B181E0982795B93FEF43ED90E3315098
:1002600040409040E1F700C0000095B1892785B972
:100270003FEF43ED80E3315040408040E1F700C064
:1002800000002F5F233020F308950E94C3000E94D6
:1002900053000E941C010E94CA000E940501EC014B
:1002A00068E071E00E94B801892B21F481E00E948E
:1002B000120132C06DE071E0CE010E94B801892BBD
:1002C00021F480E00E94120127C063E171E0CE01B9
:1002D0000E94B801892B41F40E94260181E00E940E
:1002E00012010E94850018C06DE171E0CE010E94EC
:1002F000B801892B19F40E9426010EC063E271E057
:10030000CE010E94B801892B21F481E00E940801EE
:1003100003C080E00E9408012FEF81EE94E021509D
:1003200080409040E1F700C00000B5CFA1E21A2E56
:10033000AA1BBB1BFD010DC0AA1FBB1FEE1FFF1F89
:10034000A217B307E407F50720F0A21BB30BE40BD9
:10035000F50B661F771F881F991F1A9469F7609520
:100360007095809590959B01AC01BD01CF010895DA
:10037000FB01DC018D91019080190110D9F3990BDB
:060380000895F894FFCF80
:10038600060126014A015D016F70656E00636C6FA0
:10039600736500656D657267656E63790066617584
:0A03A6006C74006D6F76696E6700DD
:00000001FF
