S0100000756E6F536C6176652E73726563C7
S11300000C9434000C9451000C9451000C94510045
S11300100C9451000C9451000C9451000C94510018
S11300200C9451000C9451000C9451000C94510008
S11300300C9451000C9451000C9451000C945100F8
S11300400C9451000C9451000C9451000C945100E8
S11300500C9451000C9451000C9451000C945100D8
S11300600C9451000C94510011241FBECFEFD8E022
S1130070DEBFCDBF11E0A0E0B1E0ECE4F4E002C0EB
S113008005900D92A836B107D9F721E0A8E6B1E0B2
S113009001C01D92A338B207E1F70E9472010C94CB
S11300A024020C94000084B1886084B9E0EBF0E091
S11300B010821092B1001092B2008081806480831B
S11300C080818260808308959C01892B31F4E1EB67
S11300D0F0E08081887F80830895E1EBF0E0808107
S11300E0887F8083808184608083C901A0E0B0E040
S11300F0880F991FAA1FBB1F880F991FAA1FBB1F18
S1130100880F991FAA1FBB1F880F991FAA1FBB1F07
S1130110880F991FAA1FBB1F880F991FAA1FBB1FF7
S11301209C01AD01220F331F441F551F60E074E290
S113013084EF90E00E94F901215031092F3F3105ED
S113014019F010F02FEF30E02093B3000895CF930F
S1130150C0E040C0EC2FF0E0EE0FFF1FE45EFE4F66
S1130160808191810E9464008C2F837069F481E006
S11301700E9437012FEF83EC99E02150804090409A
S1130180E1F700C0000018C0CF3051F42FEF89E62A
S113019098E1215080409040E1F700C000000CC07D
S11301A080E00E9437012FEF81EE94E021508040DF
S11301B09040E1F700C0000080E090E00E946400FD
S11301C02FEF80E792E0215080409040E1F700C09B
S11301D00000CF5FC03108F4BDCF80E00E9437013A
S11301E0CF9108958EEA8093BA0084E48093BC0092
S11301F008958091BC008823E4F78091B900887F3A
S113020094EC9093BC00803811F0803979F4E0913B
S11302106801E33170F781E08E0F80936801F0E0AC
S11302208091BB00E759FE4F8083E3CF883811F0FB
S1130230883979F4E0916801E331D8F681E08E0FD2
S113024080936801F0E08091BB00E759FE4F808302
S1130250D0CF803A71F6E0916801F0E0E759FE4FA3
S1130260108210926801089589E691E00895882328
S113027021F085B1846085B9089585B18B7F85B9F6
S11302800895882321F085B1816085B9089585B1E9
S11302908E7F85B9089584B1856084B981E00E9418
S11302A041010895CF93C0E019C081E00E94370155
S11302B02FEF8FE097E2215080409040E1F700C09B
S11302C0000080E00E9437012FEF8FE097E2215079
S11302D080409040E1F700C00000CF5FC33028F3B6
S11302E0CF91089587E690E00E94E0010E94F20019
S11302F00E9453000E944B010E94F9000E943401A5
S1130300EC016CE371E00E941B02892B39F480E05C
S11303100E94370181E00E9441012FC066E471E030
S1130320CE010E941B02892B39F480E00E94370120
S113033080E00E94410121C061E571E0CE010E948C
S11303401B02892B19F40E94A70017C06BE571E00A
S1130350CE010E941B02892B19F40E9452010DC088
S113036061E671E0CE010E941B02892B31F481E029
S11303700E94370180E00E9441012FEF81EE94E05A
S1130380215080409040E1F700C00000B5CFCF93EA
S1130390C82F8A3019F48DE00E94C7018091C000F3
S11303A085FFFCCFC093C60080E090E0CF91089514
S11303B08091C0008823E4F78091C60090E00895FE
S11303C09093C5008093C400E1ECF0E080818861E3
S11303D08083E2ECF0E080818E608083EDE7F1E0E1
S11303E08EE091E09383828380E091E09183808327
S11303F00895A1E21A2EAA1BBB1BFD010DC0AA1F62
S1130400BB1FEE1FFF1FA217B307E407F50720F079
S1130410A21BB30BE40BF50B661F771F881F991FF4
S11304201A9469F760957095809590959B01AC013D
S1130430BD01CF010895FB01DC018D91019080196C
S10F04400110D9F3990B0895F894FFCF34
S113044C00000001000000000000D80100000000C2
S113045C000200000000C70100000000C800F40105
S113046C58022C01A401C80058022C013200C80007
S113047CF40158022C01A401C80058026F70656E77
S113048C5F646F6F7200636C6F73655F646F6F7220
S113049C00656D657267656E6379006661756C7471
S10B04AC006D6F76696E6700B4
S9030000FC
