S0180000456D626564646564456C657661746F722E73726563C0
S1130000E9C00000DFC2000004C1000002C100001A
S113001000C10000FEC00000FCC00000FAC00000E7
S1130020F8C00000F6C00000F4C00000F2C00000F8
S1130030F0C00000EEC00000ECC00000EAC0000008
S1130040E8C00000E6C00000E4C00000E2C0000018
S1130050E0C00000DEC00000DCC00000DAC0000028
S1130060D8C00000D6C00000D4C00000D2C0000038
S1130070D0C00000CEC00000CCC00000CAC0000048
S1130080C8C00000C6C00000C4C00000C2C0000058
S1130090C0C00000BEC00000BCC00000BAC0000068
S11300A0B8C00000B6C00000B4C00000B2C0000078
S11300B0B0C00000AEC00000ACC00000AAC0000088
S11300C0A8C00000A6C00000A4C00000A2C0000098
S11300D0A0C000009EC000009CC000009AC00000A8
S11300E098C000007E03860386038603800386038C
S11300F082038403860386038603860386038603BA
S113010086038603860386038603860386038603A3
S11301108603860386038603860386038603860393
S11301208603860386038603860386038603860383
S11301308603860386038603860386038603860373
S11301408603860386038603860386038603860363
S11301508603860386038603860386038603860353
S11301608603860376038603860386037803860361
S11301707A037C0386038603860386038603860349
S11301808603860386038603860386038603860323
S11301908603860386038603860386038603860313
S11301A0860386036E038603860386037003860331
S11301B07203740386038603860386038603860319
S11301C086038603680386038603860388038603FF
S11301D06A036C0311241FBECFEFD1E2DEBFCDBF93
S11301E000E00CBF14E0A0E0B2E0E4ECF1E100E0D8
S11301F00BBF02C007900D92A836B107D9F724E0CF
S1130200A8E6B4E001C01D92A037B207E1F7CAD353
S1130210D7C7F6CE84EA8093BC0080E090E00FC09C
S1130220EFE9FFE03197F1F700C000000196893E45
S1130230F3E09F0720F08CE192E054C408952091EC
S1130240BC0022236CF7089584E98093BC000895D0
S11302508093BB0084E88093BC0080E090E00FC0F2
S1130260EFE9FFE03197F1F700C000000196853F08
S1130270F1E09F0720F08CE192E034C408952091CE
S1130280BC0022236CF70895AF92BF92DF92EF92E5
S1130290FF920F931F93CF93DF93CDB7DEB7A09751
S11302A00FB6F894DEBF0FBECDBF7C018FE292E0A3
S11302B019D4B0DF8DE492E015D487E692E012D42D
S11302C08EEAC6DF85E892E00DD4D12C21C08701E7
S11302D0080F191FF80180811F928F931F92DF92DC
S11302E08DE992E09F938F931F9280E28F93CE01CA
S11302F001965C019F938F936AD4C501F3D3F801EF
S11303008081A6DFD3940FB6F894DEBF0FBECDBFB5
S11303108D2D90E0F70101900020E9F73197EE1957
S1130320FF098E179F0798F286EB92E0DBD38CDFF0
S11303308AEC92E0D7D383EE92E0D4D3A0960FB6A2
S1130340F894DEBF0FBECDBFDF91CF911F910F9107
S1130350FF90EF90DF90BF90AF90089510926804E3
S1130360B5D28FEF92E0C7D261E080E0A7D28DE0F2
S113037093E0B8C3089583E0809368048AE193E02E
S113038083DFA4D285E293E0B6D285E293E0AAD3D8
S11303902FEF83ED90E3215080409040E1F700C0BF
S11303A00000DCCF089582E08093680481E393E049
S11303B06BDF8CD28BE393E09ED28BE393E092D3FA
S11303C02FEF83E294EF215080409040E1F700C08A
S11303D00000D1CF089584E08093680487E493E01B
S11303E053DF74D280EB93E086D280EB93E07AD330
S11303F0DADFC1CF089585E08093680481E593E056
S113040043DF64D287E593E076D287E593E06AD34D
S11304102FEF87EA91E6215080409040E1F700C039
S113042000009CCF08950F931F93CF93DF93CDB714
S1130430DEB7E6970FB6F894DEBF0FBECDBF182F18
S113044045D24AE0BE016F5F7F4F812F90E081D398
S113045060E080E033D289E693E04DD2CE0101968C
S11304604AD261E080E02AD2809168048230C1F0EF
S113047028F4882349F0813069F02AC08430E1F0FF
S1130480A8F08530F9F024C081E793E034D288E7FE
S113049093E020C08DE793E02ED284E893E01AC065
S11304A08BE893E028D282E993E014C08AE993E0D0
S11304B022D281EA93E00EC089EA93E01CD280EB59
S11304C093E008C08AEB93E016D281EC93E002C07B
S11304D081E094E09F938F931F921F9387EC93E0A6
S11304E09F938F931F9282E38F938E010B5F1F4F15
S11304F01F930F936CD3C801F5D20FB6F894DEBFE7
S11305000FBECDBFE6960FB6F894DEBF0FBECDBFCB
S1130510DF91CF911F910F910895CF93C82F8091B0
S113052069041F928F938DED93E09F938F933CD337
S11305301F92CF9380EF93E09F938F9335D382E004
S113054094E0A2DE809169042DB73EB7285F3F4F47
S11305500FB6F8943EBF0FBE2DBFC81302C04BDFC9
S11305601CC091E0909368045EDF12C08C1710F4F5
S113057091E001C09FEF890F8093690454DF3FEF3E
S113058089E698E1315080409040E1F700C00000D6
S113059080916904C813EACF06DFCF910895789457
S11305A00895CF93C82F89E094E09CD2C23041F4DF
S11305B0E9E6F0E08081826080838DB381608DBB49
S11305C0CF9108951F920F920FB60F9211240BB67C
S11305D00F922F933F934F935F936F937F938F93D8
S11305E09F93AF93BF93EF93FF93F5DEFF91EF914A
S11305F0BF91AF919F918F917F916F915F914F9137
S11306003F912F910F900BBE0F900FBE0F901F9034
S1130610189520E09FEE10C090930801E9EFF0E0F8
S11306203197F1F700C00000809106018F708F3080
S113063029F4990F9F5F2F5F243070F3907F890F07
S1130640089580EF8093070108958FE08093080157
S1130650809106018F708F30C1F789EF90E0019788
S1130660F1F700C000008FE080930801809106013B
S11306708F708F3051F708958FE080930801809137
S113068006018F708F30C1F389EF90E00197F1F785
S113069000C000008FE080930801809106018F70F4
S11306A08F3051F30895D1DF89EF90E00197F1F78E
S11306B000C00000E1DFADDF90E0FC01E757F10985
S11306C0E837F10518F58827EE58FF4F8F4F1CC205
S11306D08AE2089584E3089581E3089580E3089508
S11306E088E3089585E3089582E3089583E20895F5
S11306F089E3089586E3089583E3089584E40895DF
S113070083E4089582E4089581E408958AE70895CE
S113071087E3089585B1806285B9000085B18F7D36
S113072085B90895CF93C82F662331F0E2E0F1E054
S113073080818064808305C0E2E0F1E080818F7B6A
S1130740808385B18F7E85B98DB180628DB983B385
S1130750806283BB8DB188608DB9E1E0F1E0808176
S113076088608083E2E0F1E08081877F80838EB1BE
S1130770877F8EB984B38F7D84BB8EB18F7D8EB914
S1130780CC231CF4808188608083C6FF03C08EB1B3
S113079088608EB9C5FF03C084B3806284BBC4FF84
S11307A003C08EB180628EB9B5DFE2E0F1E08081F2
S11307B0877F80838EB1877F8EB984B38F7D84BB1E
S11307C08EB18F7D8EB9C3FF03C080818860808322
S11307D0C2FF03C08EB188608EB9C1FF03C084B369
S11307E0806284BBC0FF03C08EB180628EB992DF89
S11307F08EB180628EB984B3806284BB8EB188600E
S11308008EB9E2E0F1E0808188608083CF91089521
S1130810882331F0E2E0F1E080818064808305C0C8
S1130820E2E0F1E080818F7B808385B1806185B9CE
S11308308DB18F7D8DB983B38F7D83BB8DB1877F60
S11308408DB9E1E0F1E08081877F808385B18062AA
S113085085B90000659902C080E001C080E19599E6
S11308608062639980649091000193FD806895B1E2
S11308709F7D95B9000095B1906295B90000659986
S1130880816095998260639984609091000193FDE1
S1130890886095B19F7D95B9089580E0B9DF88237C
S11308A0E4F300C000C080E0B3CF0895CF93C82F15
S11308B0F4DF60E08C2F36DFCF910895611103C01F
S11308C08058F4CF08958054F1CF089581E0EECF9D
S11308D00895CF93C82FE1DFCA3041F4803410F477
S11308E080E401C080E08058E1DF03C061E08C2F28
S11308F019DFCF910895CF93DF93FC0102C0E9DFA4
S1130900FE01EF01219680818111F9CFDF91CF9112
S11309100895CF93C82FE1E0F1E080818064808363
S113092084B1806184B984B1806284B98DB18062FC
S11309308DB983B3806283BB8DB188608DB98081AA
S1130940886080838FE99FE00197F1F700C0000081
S113095084B3806284BB8EB180628EB9DBDE81EEAB
S113096094E00197F1F700C00000D4DE95E19A9578
S1130970F1F70000CFDE85E18A95F1F700008EB132
S11309808F7D8EB9C7DE95E19A95F1F7000088E274
S11309908DDF88E08BDF9ADF86E088DF8C2F86DFAF
S11309A0CF910895CF93DF9300D0CDB7DEB787E61C
S11309B090E07FD08CE0ADDF89DF43DECFDC1982AD
S11309C01A821B828DB18F7E8DB98EB180618EB9F2
S11309D0E6DD82E0E6DD10E066DE90ED980F9A3009
S11309E0E8F41230D8F401E0010FE1E0F0E0EC0F9C
S11309F0FD1FE10FF11D8083E1E0F0E0EC0FFD1F2E
S1130A00E00FF11D108261E080E058DFCE01019615
S1130A1072DFCE01019666D0102FDECF8332E9F467
S1130A201123C1F0CE01019677D0843610F475DD20
S1130A3011C04CDF85E194E05EDF85E194E052D0A3
S1130A402FEF83ED90E3215080409040E1F700C008
S1130A50000084DC198210E0BFCF8A3261F419826D
S1130A6061E080E02BDF83E294E045DF61E080E039
S1130A7025DF10E0B1CF82E394E034D0198210E096
S1130A80ABCFCF93C82F8A3011F48DE0FADF809179
S1130A90C00085FFFCCFC093C60080E090E0CF91FA
S1130AA008958091C0008823E4F78091C60090E007
S1130AB008959093C5008093C400E1ECF0E0808138
S1130AC088618083E2ECF0E080818E608083EAE6D6
S1130AD0F4E08EE092E09383828380E092E091835D
S1130AE080830895CF93DF93EC0104C021966EE0D8
S1130AF072E0C7DF88818111F9CF6EE072E08AE08D
S1130B00C0DFDF91CF910895EE0FFF1F881F8BBFC9
S1130B100790F691E02D1994FC0188279927E89411
S1130B2021912032E9F3293010F02E30C8F32B3212
S1130B3039F02D3231F4689403C015D0820F911D21
S1130B40219120532A30C8F31EF4909581959F4F2C
S1130B500895BB274A3031F4992322F4BDE29095DD
S1130B6081959F4F09C07AE0979F902D879F802D94
S1130B70910D11240895BB27FB015527AA27880F3F
S1130B80991FAA1FA41710F0A41B83955051B9F7FD
S1130B90A05DAA3308F0A95DA193009779F7B1117C
S1130BA0B1931192CB0162C2CF93DF93CDB7DEB77D
S1130BB0AE014A5F5F4FFA0161917191AF0180917B
S1130BC06C0490916D043FD0DF91CF9108950F9301
S1130BD01F93CF93DF93CDB7DEB72E970FB6F8945C
S1130BE0DEBF0FBECDBF0E891F89888D998D26E08B
S1130BF02C831A83098397FF02C080E090E8019751
S1130C009E838D83AE01445E5F4F6A8D7B8DCE01E2
S1130C10019619D04D815E8157FD0AC02F81388518
S1130C20421753070CF49A01F801E20FF31F1082E4
S1130C302E960FB6F894DEBF0FBECDBFDF91CF91D5
S1130C401F910F9108952F923F924F925F926F924E
S1130C507F928F929F92AF92BF92CF92DF92EF9248
S1130C60FF920F931F93CF93DF93CDB7DEB72B97EC
S1130C700FB6F894DEBF0FBECDBF6C017B018A01B5
S1130C80FC0117821682838181FFBFC1CE010196C8
S1130C903C01F6019381F70193FD859193FF8191C6
S1130CA07F01882309F4ADC1853239F493FD859120
S1130CB093FF81917F01853221F4B60190E0E6D162
S1130CC0E8CF912C212C312CFFE1F315D8F08B3295
S1130CD079F038F4803279F08332A1F4232D206145
S1130CE01DC08D3261F0803369F4232D216016C05C
S1130CF0832D8260382EE32DE4603E2E2AC0F32D2E
S1130D00F8601DC037FC2DC020ED280F2A3040F0BC
S1130D108E32B9F436FC75C1232D2064322E19C0ED
S1130D2036FE06C08AE0989E200D1124922E11C032
S1130D30EAE02E9E200D1124222EF32DF0623F2E88
S1130D4008C08C3621F4832D8068382E02C0883682
S1130D5041F4F70193FD859193FF81917F01811106
S1130D60B3CF982F9F7D9554933028F40C5F1F4F79
S1130D709FE399830DC0833631F0833771F0833557
S1130D8009F055C020C0F801808189830E5F1F4F90
S1130D9088248394912C530112C02801F2E04F0E51
S1130DA0511CF801A080B18036FE03C0692D70E0AB
S1130DB002C06FEF7FEFC5014ED14C018201F32DCC
S1130DC0FF773F2E15C0280122E0420E511CF80186
S1130DD0A080B18036FE03C0692D70E002C06FEFC1
S1130DE07FEFC5012DD14C01F32DF0683F2E820118
S1130DF033FC19C0822D90E088169906A0F4B60140
S1130E0080E290E043D12A94F5CFF50137FC859137
S1130E1037FE81915F01B60190E038D121102A9408
S1130E2021E0821A91088114910479F7E1C0843693
S1130E3011F0893639F5F80137FE07C060817181F8
S1130E40828193810C5F1F4F08C060817181072EDE
S1130E50000C880B990B0E5F1F4FF32DFF763F2E6E
S1130E6097FF09C090958095709561957F4F8F4F3E
S1130E709F4FF0683F2E2AE030E0A30143D1882E33
S1130E80861844C0853731F4232D2F7EB22E2AE0F4
S1130E9030E025C0932D997FB92E8F36C1F018F418
S1130EA0883579F0AEC0803719F0883721F0A9C0B1
S1130EB0E92FE061BE2EB4FE0DC0FB2DF460BF2E01
S1130EC009C034FE0AC0292F2660B22E06C028E0CD
S1130ED030E005C020E130E002C020E132E0F8015A
S1130EE0B7FE07C060817181828193810C5F1F4FBF
S1130EF006C06081718180E090E00E5F1F4FA30106
S1130F0001D1882E8618FB2DFF773F2E36FE0DC0AB
S1130F10232D2E7FA22E891458F434FE0BC032FCEC
S1130F2009C0832D8E7EA82E05C0B82CA32C03C027
S1130F30B82C01C0B92CA4FE0FC0FE01E80DF11DB0
S1130F408081803321F49A2D997EA92E09C0A2FEB6
S1130F5006C0B394B39404C08A2D867809F0B39480
S1130F60A3FC10C0A0FE06C0B21480F4280C922C7E
S1130F709B180DC0B21458F4B60180E290E086D0FC
S1130F80B394F8CFB21418F42B1802C0982C212C67
S1130F90A4FE0FC0B60180E390E078D0A2FE16C094
S1130FA0A1FC03C088E790E002C088E590E0B601A8
S1130FB00CC08A2D867851F0A1FE02C08BE201C0DC
S1130FC080E2A7FC8DE2B60190E060D0891430F491
S1130FD0B60180E390E05AD09A94F8CF8A94F30152
S1130FE0E80DF11D8081B60190E050D08110F6CF5C
S1130FF0222009F44ECEB60180E290E047D02A9434
S1131000F7CFF6018681978102C08FEF9FEF2B9671
S11310100FB6F894DEBF0FBECDBFDF91CF911F9105
S11310200F91FF90EF90DF90CF90BF90AF909F9083
S11310308F907F906F905F904F903F902F90089586
S1131040FC010590615070400110D8F7809590958F
S11310508E0F9F1F0895FC01615070400190011094
S1131060D8F7809590958E0F9F1F0895DC01FC01A1
S1131070672F71917723E1F7329704C07C916D93C8
S113108070836291AE17BF07C8F308950F931F933F
S1131090CF93DF93FB01238121FD03C08FEF9FEFEB
S11310A02CC022FF16C04681578124813581421706
S11310B0530744F4A081B1819D012F5F3F4F3183D9
S11310C020838C93268137812F5F3F4F378326837C
S11310D014C08B01EC01FB010084F185E02D19950E
S11310E0892BE1F6D80116968D919C91179701965C
S11310F017969C938E931697CE01DF91CF911F91F3
S11311000F910895FA01AA27283051F1203181F175
S1131110E8946F936E7F6E5F7F4F8F4F9F4FAF4FFB
S1131120B1E03ED0B4E03CD0670F781F891F9A1F0E
S1131130A11D680F791F8A1F911DA11D6A0F711DC2
S1131140811D911DA11D20D009F468943F912AE0CE
S1131150269F11243019305D3193DEF6CF010895B6
S1131160462F4770405D4193B3E00FD0C9F7F6CFE7
S1131170462F4F70405D4A3318F0495D31FD4052AF
S1131180419302D0A9F7EACFB4E0A6959795879545
S113119077956795BA95C9F7009761057105089524
S11311A09B01AC010A2E06945795479537952795D0
S11311B0BA95C9F7620F731F841F951FA01D089568
S10711C0F894FFCFCD
S11311C400000001000000000000510500000000C0
S11311D400020000000041050000000054574920AB
S11311E477726974652074696D656F757421005430
S11311F457493A205374617274696E67207472613A
S11312046E736D697373696F6E2E2E2E0054574975
S11312143A20535441525420636F6E646974696F65
S11312246E2073656E74005457493A2053656E6496
S1131234696E6720736C617665206164647265739A
S1131244732E2E2E005457493A20536C6176652030
S1131254616464726573732073656E7400545749D2
S11312643A2053656E64696E67206279746520253B
S1131274643A202563005457493A20416C6C206237
S1131284797465732073656E74005457493A205316
S1131294544F5020636F6E646974696F6E20736574
S11312A46E74005457493A205472616E736D6973B5
S11312B473696F6E20636F6D706C6574652E004383
S11312C4686F6F736520666C6F6F723A0043686F62
S11312D46F736520666C6F6F7200636C6F73655F08
S11312E4646F6F7200446F6F7220636C6F73656414
S11312F4006F70656E5F646F6F7200446F6F72206D
S11313046F70656E656400656D657267656E63799B
S1131314006661756C74004661756C743A2053619F
S11313246D6520666C6F6F7200466C6F6F723A2045
S11313340053746174653A2049444C450053746104
S113134474653A204D4F56494E4700537461746591
S11313543A204F50454E494E470053746174653AE0
S113136420434C4F53494E470053746174653A20EB
S1131374454D455247454E43590053746174653A8B
S1131384204641554C5400466C6F6F723A202564D4
S1131394207C2053746174653A202573004375726C
S11313A472656E7420666C6F6F723A2025640A004D
S11313B454617267657420666C6F6F723A20256499
S11313C40A006D6F76696E670049535220656E6139
S11313D4626C656400496E76616C696420666C6F46
S11313E46F72002020202020202020202020202074
S11313F420004E6F207375636820666C6F6F7220D3
S11314046578697374732E20466C6F6F72207365EC
S11314146C656374696F6E20686173206265656EC0
S10B14242072657365742E004B
S9030000FC
