:10000000E9C0000007C1000005C1000003C10000F5
:1000100001C1000015C30000FDC00000FBC00000CE
:10002000F9C00000F7C00000F5C00000F3C00000F8
:10003000F1C00000EFC00000EDC00000EBC0000008
:10004000E9C00000E7C00000E5C00000E3C0000018
:10005000E1C00000DFC00000DDC00000DBC0000028
:10006000D9C00000D7C00000D5C00000D3C0000038
:10007000D1C00000CFC00000CDC00000CBC0000048
:10008000C9C00000C7C00000C5C00000C3C0000058
:10009000C1C00000BFC00000BDC00000BBC0000068
:1000A000B9C00000B7C00000B5C00000B3C0000078
:1000B000B1C00000AFC00000ADC00000ABC0000088
:1000C000A9C00000A7C00000A5C00000A3C0000098
:1000D000A1C000009FC000009DC000009BC00000A8
:1000E00099C00000BC03C403C403C403BE03C4031B
:1000F000C003C203C403C403C403C403C403C403CE
:10010000C403C403C403C403C403C403C403C403B7
:10011000C403C403C403C403C403C403C403C403A7
:10012000C403C403C403C403C403C403C403C40397
:10013000C403C403C403C403C403C403C403C40387
:10014000C403C403C403C403C403C403C403C40377
:10015000C403C403C403C403C403C403C403C40367
:10016000C403C403B403C403C403C403B603C40375
:10017000B803BA03C403C403C403C403C403C4035D
:10018000C403C403C403C403C403C403C403C40337
:10019000C403C403C403C403C403C403C403C40327
:1001A000C403C403AC03C403C403C403AE03C40345
:1001B000B003B203C403C403C403C403C403C4032D
:1001C000C403C403A603C403C403C403C603C40313
:1001D000A803AA0311241FBECFEFD1E2DEBFCDBF1B
:1001E00000E00CBF14E0A0E0B2E0E0E7F2E100E0E4
:1001F0000BBF02C007900D92A237B107D9F724E0D8
:10020000A2E7B4E001C01D92AC37B207E1F712D407
:100210000C943609F5CE83E08093B8001092B900B3
:10022000ECEBF0E0808184608083089584EA809321
:10023000BC0080E090E00FC0EFE9FFE03197F1F7FC
:1002400000C000000196813DF7E09F0720F08CE19F
:1002500092E09EC408952091BC0022236CF708957B
:1002600084E98093BC0008958093BB0084E8809368
:10027000BC0080E090E00FC0EFE9FFE03197F1F7BC
:1002800000C000000196813DF7E09F0720F08CE15F
:1002900092E07EC408952091BC0022236CF708955B
:1002A000AF92BF92DF92EF92FF920F931F93CF9383
:1002B000DF93CDB7DEB7A0970FB6F894DEBF0FBEC1
:1002C000CDBF7C018FE292E063D4B0DF8DE492E099
:1002D0005FD487E692E05CD48EEAC6DF85E892E0E0
:1002E00057D4D12C21C08701080F191FF801808134
:1002F0001F928F931F92DF928DE992E09F938F93CD
:100300001F9280E28F93CE0101965C019F938F93A1
:10031000B4D4C5013DD4F8018081A6DFD3940FB6D3
:10032000F894DEBF0FBECDBF8D2D90E0F701019098
:100330000020E9F73197EE19FF098E179F0798F211
:1003400086EB92E025D48CDF8AEC92E021D483EE18
:1003500092E01ED4A0960FB6F894DEBF0FBECDBFBC
:10036000DF91CF911F910F91FF90EF90DF90BF90A1
:10037000AF90089510927204E7D28FEF92E0F9D215
:1003800061E080E0D9D28DE093E002C4089583E07B
:10039000809372048AE193E083DFD6D285E293E012
:1003A000E8D285E293E0F4D32FEF83ED90E3215080
:1003B00080409040E1F700C00000DCCF089582E06B
:1003C0008093720481E393E06BDFBED28BE393E012
:1003D000D0D28BE393E0DCD32FEF83E294EF215074
:1003E00080409040E1F700C00000D1CF0895809197
:1003F000750481111CC081E08093750484E08093B2
:10040000720487E493E04CDF9FD281E593E0B1D2A0
:1004100081E593E0BDD32FEF8FE493EC2150804032
:100420009040E1F700C00000CADF10927204089506
:1004300085E0809372048BE593E032DF85D281E61C
:1004400093E097D281E693E0A3D32FEF87EA91E67A
:10045000215080409040E1F700C000008BCF08950C
:10046000FF920F931F93CF93DF93CDB7DEB7EE9735
:100470000FB6F894DEBF0FBECDBFF82E65D24AE0AE
:10048000BE016F5F7F4F8F2D90E0B9D360E080E0B9
:1004900053D28BE993E06DD2CE0101966AD261E02E
:1004A00080E04AD280917204843038F48230A0F522
:1004B000882351F0813071F045C0843009F436C092
:1004C000853009F439C03EC08FEF92E052D209E87E
:1004D00013E03AC08BE993E04CD2809174044AE077
:1004E000BE01655C7F4F90E08AD3CE01CB9641D2AE
:1004F00061E080E021D283EA93E03BD280917304F3
:100500004AE0BE01695C7F4F90E079D3CE01C79687
:1005100030D20EE813E018C0823019F403E713E07C
:1005200002C00DE713E0C80124D20EC081E593E0BC
:1005300020D201E513E008C08CEA93E01AD205E965
:1005400013E002C008EF13E01F930F931F92FF9276
:100550008EEB93E09F938F931F9282E38F938E0194
:100560000B5F1F4F1F930F9388D3C80111D30FB692
:10057000F894DEBF0FBECDBFEE960FB6F894DEBF87
:100580000FBECDBFDF91CF911F910F91FF900895C6
:10059000CF93C82F809174041F928F9384ED93E0C2
:1005A0009F938F9357D31F92CF9387EE93E09F93A0
:1005B0008F9350D389EF93E073DE809174042DB74D
:1005C0003EB7285F3F4F0FB6F8943EBF0FBE2DBF1A
:1005D000C81302C02DDF25C0C093730491E090932F
:1005E00072043EDF19C090917504913019F4109295
:1005F000750417C08C1710F491E001C09FEF890FAC
:10060000809374042DDF3FEF87E893E13150804001
:100610009040E1F700C0000080917404C813E3CF5C
:10062000CEDECF91089578940895843041F4EAE6BF
:10063000F0E08081826080838DB380618DBB0895FE
:100640001F920F920FB60F9211240BB60F922F9399
:100650003F934F935F936F937F938F939F93AF934A
:10066000BF93EF93FF93C3DEFF91EF91BF91AF91E3
:100670009F918F917F916F915F914F913F912F91BA
:100680000F900BBE0F900FBE0F901F90189520E09B
:100690009FEE10C090930801E9EFF0E03197F1F779
:1006A00000C00000809106018F708F3029F4990FEF
:1006B0009F5F2F5F243070F3907F890F089580EF44
:1006C0008093070108958FE08093080180910601CF
:1006D0008F708F30C1F789EF90E00197F1F700C07C
:1006E00000008FE080930801809106018F708F30A9
:1006F00051F708958FE080930801809106018F7073
:100700008F30C1F389EF90E00197F1F700C000004E
:100710008FE080930801809106018F708F3051F334
:100720000895D1DF89EF90E00197F1F700C0000054
:10073000E1DFADDF90E0FC01E757F109E837F105B3
:1007400018F58827EE58FF4F8F4F34C28AE208957C
:1007500084E3089581E3089580E3089588E308958C
:1007600085E3089582E3089583E2089589E3089577
:1007700086E3089583E3089584E4089583E4089567
:1007800082E4089581E408958AE7089587E308954F
:1007900085B1806285B9000085B18F7D85B90895E6
:1007A000CF93C82F662331F0E2E0F1E080818064CE
:1007B000808305C0E2E0F1E080818F7B808385B19A
:1007C0008F7E85B98DB180628DB983B3806283BB22
:1007D0008DB188608DB9E1E0F1E08081886080832F
:1007E000E2E0F1E08081877F80838EB1877F8EB9E0
:1007F00084B38F7D84BB8EB18F7D8EB9CC231CF4E6
:10080000808188608083C6FF03C08EB188608EB906
:10081000C5FF03C084B3806284BBC4FF03C08EB134
:1008200080628EB9B5DFE2E0F1E08081877F80836E
:100830008EB1877F8EB984B38F7D84BB8EB18F7D5F
:100840008EB9C3FF03C0808188608083C2FF03C06C
:100850008EB188608EB9C1FF03C084B3806284BB4F
:10086000C0FF03C08EB180628EB992DF8EB180620C
:100870008EB984B3806284BB8EB188608EB9E2E0A9
:10088000F1E0808188608083CF910895882331F0E2
:10089000E2E0F1E080818064808305C0E2E0F1E085
:1008A00080818F7B808385B1806185B98DB18F7D9B
:1008B0008DB983B38F7D83BB8DB1877F8DB9E1E027
:1008C000F1E08081877F808385B1806285B90000F7
:1008D000659902C080E001C080E1959980626399CA
:1008E00080649091000193FD806895B19F7D95B9DA
:1008F000000095B1906295B9000065998160959965
:100900008260639984609091000193FD886095B145
:100910009F7D95B9089580E0B9DF8823E4F300C096
:1009200000C080E0B3CF0895CF93C82FF4DF60E01C
:100930008C2F36DFCF910895611103C08058F4CF1A
:1009400008958054F1CF089581E0EECF0895CF93BC
:10095000C82FE1DFCA3041F4803410F480E401C0D4
:1009600080E08058E1DF03C061E08C2F19DFCF9178
:100970000895CF93DF93FC0102C0E9DFFE01EF0190
:10098000219680818111F9CFDF91CF910895CF9386
:10099000C82FE1E0F1E080818064808384B18061D0
:1009A00084B984B1806284B98DB180628DB983B31A
:1009B000806283BB8DB188608DB9808188608083BF
:1009C0008FE99FE00197F1F700C0000084B38062D7
:1009D00084BB8EB180628EB9DBDE81EE94E001973C
:1009E000F1F700C00000D4DE95E19A95F1F7000020
:1009F000CFDE85E18A95F1F700008EB18F7D8EB94B
:100A0000C7DE95E19A95F1F7000088E28DDF88E076
:100A10008BDF9ADF86E088DF8C2F86DFCF91089509
:100A20008CE0B5DF4CDE8DB18F7E8DB98EB18061EB
:100A30008EB90895CF93DF9300D0CDB7DEB7F0DF46
:100A400087E690E08CD080DF3ADEE5DB93DC19822C
:100A50001A821B828DB18F7E8DB9E5DD84E0E5DDE4
:100A600010E05FDE90ED980F9A30E8F41230D8F481
:100A700001E0010FE1E0F0E0EC0FFD1FE10FF11DDF
:100A80008083E1E0F0E0EC0FFD1FE00FF11D10822C
:100A900061E080E051DFCE0101966BDFCE0101966F
:100AA00077D0102FDECF8332E9F41123C1F0CE01CD
:100AB000019688D0843610F46BDD11C045DF80E0EC
:100AC00094E057DF80E094E063D02FEF83ED90E374
:100AD000215080409040E1F700C000004BDC1982BB
:100AE00010E0BFCF8A3261F4198261E080E024DF38
:100AF0008EE094E03EDF61E080E01EDF10E0B1CFE9
:100B000023DF8DE194E035DF8CE294E041D019825F
:100B10002FEF8DE399E4215080409040E1F700C031
:100B2000000012DF82E694E024DF10E09ACFCF933A
:100B3000C82F8A3011F48DE0FADF8091C00085FF64
:100B4000FCCFC093C60080E090E0CF9108958091E3
:100B5000C0008823E4F78091C60090E00895909348
:100B6000C5008093C400E1ECF0E08081886180835F
:100B7000E2ECF0E080818E608083E6E7F4E08EE0D6
:100B800092E09383828380E092E091838083089552
:100B9000CF93DF93EC0104C021966EE072E0C7DFD3
:100BA00088818111F9CF6EE072E08AE0C0DFDF91C9
:100BB000CF910895EE0FFF1F881F8BBF0790F6910E
:100BC000E02D1994FC0188279927E894219120327F
:100BD000E9F3293010F02E30C8F32B3239F02D32E2
:100BE00031F4689403C015D0820F911D21912053D8
:100BF0002A30C8F31EF4909581959F4F0895BB2726
:100C00004A3031F4992322F4BDE2909581959F4FAB
:100C100009C07AE0979F902D879F802D910D112418
:100C20000895BB27FB015527AA27880F991FAA1FE4
:100C3000A41710F0A41B83955051B9F7A05DAA33F7
:100C400008F0A95DA193009779F7B111B1931192C2
:100C5000CB0162C2CF93DF93CDB7DEB7AE014A5F5F
:100C60005F4FFA0161917191AF0180917804909189
:100C700079043FD0DF91CF9108950F931F93CF93C5
:100C8000DF93CDB7DEB72E970FB6F894DEBF0FBE59
:100C9000CDBF0E891F89888D998D26E02C831A83FC
:100CA000098397FF02C080E090E801979E838D83BF
:100CB000AE01445E5F4F6A8D7B8DCE01019619D0E7
:100CC0004D815E8157FD0AC02F8138854217530739
:100CD0000CF49A01F801E20FF31F10822E960FB662
:100CE000F894DEBF0FBECDBFDF91CF911F910F9162
:100CF00008952F923F924F925F926F927F928F92C0
:100D00009F92AF92BF92CF92DF92EF92FF920F939A
:100D10001F93CF93DF93CDB7DEB72B970FB6F89421
:100D2000DEBF0FBECDBF6C017B018A01FC011782C3
:100D30001682838181FFBFC1CE0101963C01F6017D
:100D40009381F70193FD859193FF81917F01882322
:100D500009F4ADC1853239F493FD859193FF8191FA
:100D60007F01853221F4B60190E0E6D1E8CF912CE5
:100D7000212C312CFFE1F315D8F08B3279F038F4C7
:100D8000803279F08332A1F4232D20611DC08D3291
:100D900061F0803369F4232D216016C0832D8260B9
:100DA000382EE32DE4603E2E2AC0F32DF8601DC0DE
:100DB00037FC2DC020ED280F2A3040F08E32B9F4D8
:100DC00036FC75C1232D2064322E19C036FE06C0B4
:100DD0008AE0989E200D1124922E11C0EAE02E9EEA
:100DE000200D1124222EF32DF0623F2E08C08C36E8
:100DF00021F4832D8068382E02C0883641F4F70133
:100E000093FD859193FF81917F018111B3CF982F3D
:100E10009F7D9554933028F40C5F1F4F9FE3998377
:100E20000DC0833631F0833771F0833509F055C03A
:100E300020C0F801808189830E5F1F4F882483942E
:100E4000912C530112C02801F2E04F0E511CF80101
:100E5000A080B18036FE03C0692D70E002C06FEF44
:100E60007FEFC5014ED14C018201F32DFF773F2E5C
:100E700015C0280122E0420E511CF801A080B1806B
:100E800036FE03C0692D70E002C06FEF7FEFC50131
:100E90002DD14C01F32DF0683F2E820133FC19C097
:100EA000822D90E088169906A0F4B60180E290E0C9
:100EB00043D12A94F5CFF50137FC859137FE819116
:100EC0005F01B60190E038D121102A9421E0821A06
:100ED00091088114910479F7E1C0843611F08936C4
:100EE00039F5F80137FE07C06081718182819381F5
:100EF0000C5F1F4F08C060817181072E000C880BAA
:100F0000990B0E5F1F4FF32DFF763F2E97FF09C001
:100F100090958095709561957F4F8F4F9F4FF068AA
:100F20003F2E2AE030E0A30143D1882E861844C02A
:100F3000853731F4232D2F7EB22E2AE030E025C0F4
:100F4000932D997FB92E8F36C1F018F4883579F03A
:100F5000AEC0803719F0883721F0A9C0E92FE061D1
:100F6000BE2EB4FE0DC0FB2DF460BF2E09C034FEB2
:100F70000AC0292F2660B22E06C028E030E005C046
:100F800020E130E002C020E132E0F801B7FE07C006
:100F900060817181828193810C5F1F4F06C06081E7
:100FA000718180E090E00E5F1F4FA30101D1882E78
:100FB0008618FB2DFF773F2E36FE0DC0232D2E7F8A
:100FC000A22E891458F434FE0BC032FC09C0832DC4
:100FD0008E7EA82E05C0B82CA32C03C0B82C01C04F
:100FE000B92CA4FE0FC0FE01E80DF11D80818033F5
:100FF00021F49A2D997EA92E09C0A2FE06C0B394B1
:10100000B39404C08A2D867809F0B394A3FC10C071
:10101000A0FE06C0B21480F4280C922C9B180DC0C0
:10102000B21458F4B60180E290E086D0B394F8CFC1
:10103000B21418F42B1802C0982C212CA4FE0FC057
:10104000B60180E390E078D0A2FE16C0A1FC03C0F8
:1010500088E790E002C088E590E0B6010CC08A2DD8
:10106000867851F0A1FE02C08BE201C080E2A7FCAD
:101070008DE2B60190E060D0891430F4B60180E3CF
:1010800090E05AD09A94F8CF8A94F301E80DF11DBC
:101090008081B60190E050D08110F6CF222009F473
:1010A0004ECEB60180E290E047D02A94F7CFF60109
:1010B0008681978102C08FEF9FEF2B960FB6F89431
:1010C000DEBF0FBECDBFDF91CF911F910F91FF907B
:1010D000EF90DF90CF90BF90AF909F908F907F90D8
:1010E0006F905F904F903F902F900895FC01059076
:1010F000615070400110D8F7809590958E0F9F1F1A
:101100000895FC016150704001900110D8F780955E
:1011100090958E0F9F1F0895DC01FC01672F719140
:101120007723E1F7329704C07C916D9370836291CD
:10113000AE17BF07C8F308950F931F93CF93DF93A4
:10114000FB01238121FD03C08FEF9FEF2CC022FF05
:1011500016C046815781248135814217530744F4D4
:10116000A081B1819D012F5F3F4F318320838C93FC
:10117000268137812F5F3F4F3783268314C08B0131
:10118000EC01FB010084F185E02D1995892BE1F636
:10119000D80116968D919C911797019617969C935E
:1011A0008E931697CE01DF91CF911F910F910895E5
:1011B000FA01AA27283051F1203181F1E8946F9388
:1011C0006E7F6E5F7F4F8F4F9F4FAF4FB1E03ED02E
:1011D000B4E03CD0670F781F891F9A1FA11D680FCC
:1011E000791F8A1F911DA11D6A0F711D811D911DFF
:1011F000A11D20D009F468943F912AE0269F112474
:101200003019305D3193DEF6CF010895462F4770D7
:10121000405D4193B3E00FD0C9F7F6CF462F4F7032
:10122000405D4A3318F0495D31FD4052419302D090
:10123000A9F7EACFB4E0A695979587957795679536
:10124000BA95C9F700976105710508959B01AC0136
:101250000A2E06945795479537952795BA95C9F75D
:10126000620F731F841F951FA01D0895F894FFCF70
:1012700000000001000000000000A70500000000C1
:1012800000020000000097050000000054574920AC
:1012900077726974652074696D656F757421005487
:1012A00057493A205374617274696E672074726191
:1012B0006E736D697373696F6E2E2E2E00545749CD
:1012C0003A20535441525420636F6E646974696FBD
:1012D0006E2073656E74005457493A2053656E64EE
:1012E000696E6720736C61766520616464726573F2
:1012F000732E2E2E005457493A20536C6176652088
:10130000616464726573732073656E740054574929
:101310003A2053656E64696E672062797465202592
:10132000643A202563005457493A20416C6C20628E
:10133000797465732073656E74005457493A20536D
:10134000544F5020636F6E646974696F6E207365CB
:101350006E74005457493A205472616E736D69730C
:1013600073696F6E20636F6D706C6574652E0043DA
:10137000686F6F736520666C6F6F723A0043686FB9
:101380006F736520666C6F6F7200636C6F73655F5F
:10139000646F6F7200446F6F7220636C6F7365646B
:1013A000006F70656E5F646F6F7200446F6F7220C4
:1013B0006F70656E656400656D657267656E6379F3
:1013C00000454D455247454E4359006661756C7462
:1013D000004661756C743A2053616D6520666C6FD0
:1013E0006F7200444F4F52204F50454E00444F4FB4
:1013F0005220434C4F5345440049444C45004D4F07
:1014000056494E47004641554C5400466C6F6F722A
:101410003A20005461726765743A20004641554C89
:10142000543A2053616D6520666C6F6F7200466C94
:101430006F6F723A202564207C2053746174653A82
:101440002025730043757272656E7420666C6F6F31
:10145000723A2025640A0054617267657420666CD4
:101460006F6F723A2025640A006D6F76696E6700AF
:10147000496E76616C696420666C6F6F7200202023
:1014800020202020202020202020202000496E76AF
:10149000616C696420666C6F6F7221004E6F2073FF
:1014A00075636820666C6F6F7220657869737473FA
:1014B0002E20466C6F6F722073656C656374696F64
:1014C0006E20686173206265656E20726573657455
:1014D0002E0043686F6F736520666C6F6F723A20E1
:0214E00000000A
:00000001FF
